{
  "contracts/ColorMatchRushTreasury.sol": {
    "ColorMatchRushTreasury": {
      "abi": [
        {
          "inputs": [
            {
              "internalType": "address",
              "name": "_cUSD",
              "type": "address"
            }
          ],
          "stateMutability": "nonpayable",
          "type": "constructor"
        },
        {
          "anonymous": false,
          "inputs": [
            {
              "indexed": true,
              "internalType": "uint256",
              "name": "roundId",
              "type": "uint256"
            },
            {
              "indexed": true,
              "internalType": "address",
              "name": "player",
              "type": "address"
            },
            {
              "indexed": false,
              "internalType": "uint256",
              "name": "amount",
              "type": "uint256"
            }
          ],
          "name": "EntryFeeReceived",
          "type": "event"
        },
        {
          "anonymous": false,
          "inputs": [
            {
              "indexed": true,
              "internalType": "address",
              "name": "oldOwner",
              "type": "address"
            },
            {
              "indexed": true,
              "internalType": "address",
              "name": "newOwner",
              "type": "address"
            }
          ],
          "name": "OwnerChanged",
          "type": "event"
        },
        {
          "anonymous": false,
          "inputs": [
            {
              "indexed": true,
              "internalType": "uint256",
              "name": "roundId",
              "type": "uint256"
            },
            {
              "indexed": false,
              "internalType": "address",
              "name": "firstPlace",
              "type": "address"
            },
            {
              "indexed": false,
              "internalType": "address",
              "name": "secondPlace",
              "type": "address"
            },
            {
              "indexed": false,
              "internalType": "address",
              "name": "thirdPlace",
              "type": "address"
            },
            {
              "indexed": false,
              "internalType": "uint256",
              "name": "firstPrize",
              "type": "uint256"
            },
            {
              "indexed": false,
              "internalType": "uint256",
              "name": "secondPrize",
              "type": "uint256"
            },
            {
              "indexed": false,
              "internalType": "uint256",
              "name": "thirdPrize",
              "type": "uint256"
            }
          ],
          "name": "PrizesDistributed",
          "type": "event"
        },
        {
          "inputs": [],
          "name": "cUSD",
          "outputs": [
            {
              "internalType": "contract IERC20",
              "name": "",
              "type": "address"
            }
          ],
          "stateMutability": "view",
          "type": "function"
        },
        {
          "inputs": [
            {
              "internalType": "address",
              "name": "newOwner",
              "type": "address"
            }
          ],
          "name": "changeOwner",
          "outputs": [],
          "stateMutability": "nonpayable",
          "type": "function"
        },
        {
          "inputs": [
            {
              "internalType": "uint256",
              "name": "roundId",
              "type": "uint256"
            },
            {
              "internalType": "address",
              "name": "firstPlace",
              "type": "address"
            },
            {
              "internalType": "address",
              "name": "secondPlace",
              "type": "address"
            },
            {
              "internalType": "address",
              "name": "thirdPlace",
              "type": "address"
            }
          ],
          "name": "distributePrizes",
          "outputs": [],
          "stateMutability": "nonpayable",
          "type": "function"
        },
        {
          "inputs": [
            {
              "internalType": "uint256",
              "name": "amount",
              "type": "uint256"
            }
          ],
          "name": "emergencyWithdraw",
          "outputs": [],
          "stateMutability": "nonpayable",
          "type": "function"
        },
        {
          "inputs": [],
          "name": "emergencyWithdrawAll",
          "outputs": [],
          "stateMutability": "nonpayable",
          "type": "function"
        },
        {
          "inputs": [
            {
              "internalType": "uint256",
              "name": "roundId",
              "type": "uint256"
            }
          ],
          "name": "endRound",
          "outputs": [],
          "stateMutability": "nonpayable",
          "type": "function"
        },
        {
          "inputs": [],
          "name": "getBalance",
          "outputs": [
            {
              "internalType": "uint256",
              "name": "",
              "type": "uint256"
            }
          ],
          "stateMutability": "view",
          "type": "function"
        },
        {
          "inputs": [
            {
              "internalType": "uint256",
              "name": "roundId",
              "type": "uint256"
            }
          ],
          "name": "getRound",
          "outputs": [
            {
              "components": [
                {
                  "internalType": "uint256",
                  "name": "roundId",
                  "type": "uint256"
                },
                {
                  "internalType": "uint256",
                  "name": "totalPool",
                  "type": "uint256"
                },
                {
                  "internalType": "bool",
                  "name": "isActive",
                  "type": "bool"
                },
                {
                  "internalType": "bool",
                  "name": "prizesDistributed",
                  "type": "bool"
                }
              ],
              "internalType": "struct ColorMatchRushTreasury.Round",
              "name": "",
              "type": "tuple"
            }
          ],
          "stateMutability": "view",
          "type": "function"
        },
        {
          "inputs": [
            {
              "internalType": "uint256",
              "name": "",
              "type": "uint256"
            },
            {
              "internalType": "address",
              "name": "",
              "type": "address"
            }
          ],
          "name": "hasClaimed",
          "outputs": [
            {
              "internalType": "bool",
              "name": "",
              "type": "bool"
            }
          ],
          "stateMutability": "view",
          "type": "function"
        },
        {
          "inputs": [],
          "name": "owner",
          "outputs": [
            {
              "internalType": "address",
              "name": "",
              "type": "address"
            }
          ],
          "stateMutability": "view",
          "type": "function"
        },
        {
          "inputs": [
            {
              "internalType": "uint256",
              "name": "roundId",
              "type": "uint256"
            }
          ],
          "name": "receiveEntryFee",
          "outputs": [],
          "stateMutability": "nonpayable",
          "type": "function"
        },
        {
          "inputs": [
            {
              "internalType": "uint256",
              "name": "",
              "type": "uint256"
            }
          ],
          "name": "rounds",
          "outputs": [
            {
              "internalType": "uint256",
              "name": "roundId",
              "type": "uint256"
            },
            {
              "internalType": "uint256",
              "name": "totalPool",
              "type": "uint256"
            },
            {
              "internalType": "bool",
              "name": "isActive",
              "type": "bool"
            },
            {
              "internalType": "bool",
              "name": "prizesDistributed",
              "type": "bool"
            }
          ],
          "stateMutability": "view",
          "type": "function"
        },
        {
          "inputs": [
            {
              "internalType": "uint256",
              "name": "roundId",
              "type": "uint256"
            },
            {
              "internalType": "uint256",
              "name": "amount",
              "type": "uint256"
            }
          ],
          "name": "updateRoundPool",
          "outputs": [],
          "stateMutability": "nonpayable",
          "type": "function"
        }
      ],
      "evm": {
        "bytecode": {
          "linkReferences": {},
          "object": "608034607e57601f610b7938819003918201601f19168301916001600160401b03831184841017608357808492602094604052833981010312607e57516001600160a01b03811690819003607e57600080546001600160a01b0319908116331790915560018054909116919091179055604051610adf908161009a8239f35b600080fd5b634e487b7160e01b600052604160045260246000fdfe608080604052600436101561001357600080fd5b60003560e01c90816312065fe0146108aa575080631fccf672146108815780635312ea8e146108485780635a1e6ca11461080257806366e9e964146104b3578063873f6f9e146104665780638c65c81f146104115780638da5cb5b146103e85780638f1327c014610347578063a6f9dae114610295578063b86219e714610251578063dd191719146101515763ff6e9a8d146100ae57600080fd5b3461014c57604036600319011261014c576004356100d760018060a01b03600054163314610999565b80600052600260205260016040600020018054906024358201809211610136575580600052600260205260ff600260406000200154161561011457005b6000818152600260208190526040909120908101805460ff1916600117905555005b634e487b7160e01b600052601160045260246000fd5b600080fd5b3461014c57600036600319011261014c576000546024906001600160a01b031661017c338214610999565b6001546040516370a0823160e01b81523060048201529260209184919082906001600160a01b03165afa9182156102455760009261020e575b5081156101d0576101ce916101c991610a23565b6109e5565b005b60405162461bcd60e51b81526020600482015260166024820152754e6f2062616c616e636520746f20776974686472617760501b6044820152606490fd5b90916020823d60201161023d575b8161022960209383610977565b8101031261023a57505190826101b5565b80fd5b3d915061021c565b6040513d6000823e3d90fd5b3461014c57602036600319011261014c576040516000815233907f3a61b21a78d0a1a9d5de64748e8a7b4ebab395f51348689364f5736943de802b602060043592a3005b3461014c57602036600319011261014c576004356001600160a01b0381169081900361014c576000546001600160a01b0381166102d3338214610999565b82156103105782907fb532073b38c83145e3e5135377a08bf9aab55bc0fd7c1179cd4fb995d2a5159c600080a36001600160a01b03191617600055005b60405162461bcd60e51b815260206004820152600f60248201526e496e76616c6964206164647265737360881b6044820152606490fd5b3461014c57602036600319011261014c576000606060405161036881610945565b82815282602082015282604082015201526004356000526002602052608060406000206040519061039882610945565b80549182815260026001830154926020830193845201549160ff6060604084019382861615158552019360081c161515835260405193845251602084015251151560408301525115156060820152f35b3461014c57600036600319011261014c576000546040516001600160a01b039091168152602090f35b3461014c57602036600319011261014c5760043560005260026020526080604060002060ff815491600260018201549101549060405193845260208401528181161515604084015260081c1615156060820152f35b3461014c57604036600319011261014c5761047f61092f565b600435600052600360205260406000209060018060a01b0316600052602052602060ff604060002054166040519015158152f35b3461014c57608036600319011261014c576004356104cf61092f565b6044356001600160a01b038116919082810361014c576064356001600160a01b0381169081810361014c5761050f60018060a01b03600054163314610999565b8560005260026020526040600020916002830192835460ff8116156107ca5760081c60ff1661078557600101549283156107485760328402848104603203610136576064900492601e8502858104601e0361013657606490049460148102908104601403610136576001600160a01b0388169760649091049690858915158061073f575b6106e5575b505085891515806106dc575b610682575b505082151580610679575b610613575b50907fb043e9488eccfb9ddb8e206fa33aa36f44d11a89c84acf5bab6b9ab5b5db658a9660c0969594939261010061ff0019825416179055604051958652602086015260408501526060840152608083015260a0820152a2005b856106249197969594939297610a23565b15610634579091929394886105b9565b60405162461bcd60e51b815260206004820152601b60248201527f5468697264207072697a65207472616e73666572206661696c656400000000006044820152606490fd5b508515156105b4565b61068b91610a23565b156106975789856105a9565b60405162461bcd60e51b815260206004820152601c60248201527f5365636f6e64207072697a65207472616e73666572206661696c6564000000006044820152606490fd5b508015156105a4565b6106ee91610a23565b156106fa578a85610598565b60405162461bcd60e51b815260206004820152601b60248201527f4669727374207072697a65207472616e73666572206661696c656400000000006044820152606490fd5b50801515610593565b60405162461bcd60e51b81526020600482015260156024820152744e6f20706f6f6c20746f206469737472696275746560581b6044820152606490fd5b60405162461bcd60e51b815260206004820152601a60248201527f5072697a657320616c72656164792064697374726962757465640000000000006044820152606490fd5b60405162461bcd60e51b815260206004820152601060248201526f526f756e64206e6f742061637469766560801b6044820152606490fd5b3461014c57602036600319011261014c5761082860018060a01b03600054163314610999565b6004356000526002602052600260406000200160ff198154169055600080f35b3461014c57602036600319011261014c576000546101ce906101c9906001600160a01b0316610878338214610999565b60043590610a23565b3461014c57600036600319011261014c576001546040516001600160a01b039091168152602090f35b3461014c57600036600319011261014c576001546370a0823160e01b8252306004830152602090829060249082906001600160a01b03165afa8015610245576000906108fc575b602090604051908152f35b506020813d602011610927575b8161091660209383610977565b8101031261014c57602090516108f1565b3d9150610909565b602435906001600160a01b038216820361014c57565b6080810190811067ffffffffffffffff82111761096157604052565b634e487b7160e01b600052604160045260246000fd5b90601f8019910116810190811067ffffffffffffffff82111761096157604052565b156109a057565b60405162461bcd60e51b815260206004820152601860248201527f4f6e6c79206f776e65722063616e2063616c6c207468697300000000000000006044820152606490fd5b156109ec57565b60405162461bcd60e51b815260206004820152600f60248201526e15da5d1a191c985dc819985a5b1959608a1b6044820152606490fd5b60015460405163a9059cbb60e01b81526001600160a01b039283166004820152602481019390935260209183916044918391600091165af190811561024557600091610a6d575090565b6020813d602011610aa1575b81610a8660209383610977565b81010312610a9d575190811515820361023a575090565b5080fd5b3d9150610a7956fea2646970667358221220c5563605d94d2c0a47bcab7c80a9268f13150760fe3fc2f7c9b3ab9c55c3e52464736f6c634300081c0033",
          "opcodes": "PUSH1 0x80 CALLVALUE PUSH1 0x7E JUMPI PUSH1 0x1F PUSH2 0xB79 CODESIZE DUP2 SWAP1 SUB SWAP2 DUP3 ADD PUSH1 0x1F NOT AND DUP4 ADD SWAP2 PUSH1 0x1 PUSH1 0x1 PUSH1 0x40 SHL SUB DUP4 GT DUP5 DUP5 LT OR PUSH1 0x83 JUMPI DUP1 DUP5 SWAP3 PUSH1 0x20 SWAP5 PUSH1 0x40 MSTORE DUP4 CODECOPY DUP2 ADD SUB SLT PUSH1 0x7E JUMPI MLOAD PUSH1 0x1 PUSH1 0x1 PUSH1 0xA0 SHL SUB DUP2 AND SWAP1 DUP2 SWAP1 SUB PUSH1 0x7E JUMPI PUSH1 0x0 DUP1 SLOAD PUSH1 0x1 PUSH1 0x1 PUSH1 0xA0 SHL SUB NOT SWAP1 DUP2 AND CALLER OR SWAP1 SWAP2 SSTORE PUSH1 0x1 DUP1 SLOAD SWAP1 SWAP2 AND SWAP2 SWAP1 SWAP2 OR SWAP1 SSTORE PUSH1 0x40 MLOAD PUSH2 0xADF SWAP1 DUP2 PUSH2 0x9A DUP3 CODECOPY RETURN JUMPDEST PUSH1 0x0 DUP1 REVERT JUMPDEST PUSH4 0x4E487B71 PUSH1 0xE0 SHL PUSH1 0x0 MSTORE PUSH1 0x41 PUSH1 0x4 MSTORE PUSH1 0x24 PUSH1 0x0 REVERT INVALID PUSH1 0x80 DUP1 PUSH1 0x40 MSTORE PUSH1 0x4 CALLDATASIZE LT ISZERO PUSH2 0x13 JUMPI PUSH1 0x0 DUP1 REVERT JUMPDEST PUSH1 0x0 CALLDATALOAD PUSH1 0xE0 SHR SWAP1 DUP2 PUSH4 0x12065FE0 EQ PUSH2 0x8AA JUMPI POP DUP1 PUSH4 0x1FCCF672 EQ PUSH2 0x881 JUMPI DUP1 PUSH4 0x5312EA8E EQ PUSH2 0x848 JUMPI DUP1 PUSH4 0x5A1E6CA1 EQ PUSH2 0x802 JUMPI DUP1 PUSH4 0x66E9E964 EQ PUSH2 0x4B3 JUMPI DUP1 PUSH4 0x873F6F9E EQ PUSH2 0x466 JUMPI DUP1 PUSH4 0x8C65C81F EQ PUSH2 0x411 JUMPI DUP1 PUSH4 0x8DA5CB5B EQ PUSH2 0x3E8 JUMPI DUP1 PUSH4 0x8F1327C0 EQ PUSH2 0x347 JUMPI DUP1 PUSH4 0xA6F9DAE1 EQ PUSH2 0x295 JUMPI DUP1 PUSH4 0xB86219E7 EQ PUSH2 0x251 JUMPI DUP1 PUSH4 0xDD191719 EQ PUSH2 0x151 JUMPI PUSH4 0xFF6E9A8D EQ PUSH2 0xAE JUMPI PUSH1 0x0 DUP1 REVERT JUMPDEST CALLVALUE PUSH2 0x14C JUMPI PUSH1 0x40 CALLDATASIZE PUSH1 0x3 NOT ADD SLT PUSH2 0x14C JUMPI PUSH1 0x4 CALLDATALOAD PUSH2 0xD7 PUSH1 0x1 DUP1 PUSH1 0xA0 SHL SUB PUSH1 0x0 SLOAD AND CALLER EQ PUSH2 0x999 JUMP JUMPDEST DUP1 PUSH1 0x0 MSTORE PUSH1 0x2 PUSH1 0x20 MSTORE PUSH1 0x1 PUSH1 0x40 PUSH1 0x0 KECCAK256 ADD DUP1 SLOAD SWAP1 PUSH1 0x24 CALLDATALOAD DUP3 ADD DUP1 SWAP3 GT PUSH2 0x136 JUMPI SSTORE DUP1 PUSH1 0x0 MSTORE PUSH1 0x2 PUSH1 0x20 MSTORE PUSH1 0xFF PUSH1 0x2 PUSH1 0x40 PUSH1 0x0 KECCAK256 ADD SLOAD AND ISZERO PUSH2 0x114 JUMPI STOP JUMPDEST PUSH1 0x0 DUP2 DUP2 MSTORE PUSH1 0x2 PUSH1 0x20 DUP2 SWAP1 MSTORE PUSH1 0x40 SWAP1 SWAP2 KECCAK256 SWAP1 DUP2 ADD DUP1 SLOAD PUSH1 0xFF NOT AND PUSH1 0x1 OR SWAP1 SSTORE SSTORE STOP JUMPDEST PUSH4 0x4E487B71 PUSH1 0xE0 SHL PUSH1 0x0 MSTORE PUSH1 0x11 PUSH1 0x4 MSTORE PUSH1 0x24 PUSH1 0x0 REVERT JUMPDEST PUSH1 0x0 DUP1 REVERT JUMPDEST CALLVALUE PUSH2 0x14C JUMPI PUSH1 0x0 CALLDATASIZE PUSH1 0x3 NOT ADD SLT PUSH2 0x14C JUMPI PUSH1 0x0 SLOAD PUSH1 0x24 SWAP1 PUSH1 0x1 PUSH1 0x1 PUSH1 0xA0 SHL SUB AND PUSH2 0x17C CALLER DUP3 EQ PUSH2 0x999 JUMP JUMPDEST PUSH1 0x1 SLOAD PUSH1 0x40 MLOAD PUSH4 0x70A08231 PUSH1 0xE0 SHL DUP2 MSTORE ADDRESS PUSH1 0x4 DUP3 ADD MSTORE SWAP3 PUSH1 0x20 SWAP2 DUP5 SWAP2 SWAP1 DUP3 SWAP1 PUSH1 0x1 PUSH1 0x1 PUSH1 0xA0 SHL SUB AND GAS STATICCALL SWAP2 DUP3 ISZERO PUSH2 0x245 JUMPI PUSH1 0x0 SWAP3 PUSH2 0x20E JUMPI JUMPDEST POP DUP2 ISZERO PUSH2 0x1D0 JUMPI PUSH2 0x1CE SWAP2 PUSH2 0x1C9 SWAP2 PUSH2 0xA23 JUMP JUMPDEST PUSH2 0x9E5 JUMP JUMPDEST STOP JUMPDEST PUSH1 0x40 MLOAD PUSH3 0x461BCD PUSH1 0xE5 SHL DUP2 MSTORE PUSH1 0x20 PUSH1 0x4 DUP3 ADD MSTORE PUSH1 0x16 PUSH1 0x24 DUP3 ADD MSTORE PUSH22 0x4E6F2062616C616E636520746F207769746864726177 PUSH1 0x50 SHL PUSH1 0x44 DUP3 ADD MSTORE PUSH1 0x64 SWAP1 REVERT JUMPDEST SWAP1 SWAP2 PUSH1 0x20 DUP3 RETURNDATASIZE PUSH1 0x20 GT PUSH2 0x23D JUMPI JUMPDEST DUP2 PUSH2 0x229 PUSH1 0x20 SWAP4 DUP4 PUSH2 0x977 JUMP JUMPDEST DUP2 ADD SUB SLT PUSH2 0x23A JUMPI POP MLOAD SWAP1 DUP3 PUSH2 0x1B5 JUMP JUMPDEST DUP1 REVERT JUMPDEST RETURNDATASIZE SWAP2 POP PUSH2 0x21C JUMP JUMPDEST PUSH1 0x40 MLOAD RETURNDATASIZE PUSH1 0x0 DUP3 RETURNDATACOPY RETURNDATASIZE SWAP1 REVERT JUMPDEST CALLVALUE PUSH2 0x14C JUMPI PUSH1 0x20 CALLDATASIZE PUSH1 0x3 NOT ADD SLT PUSH2 0x14C JUMPI PUSH1 0x40 MLOAD PUSH1 0x0 DUP2 MSTORE CALLER SWAP1 PUSH32 0x3A61B21A78D0A1A9D5DE64748E8A7B4EBAB395F51348689364F5736943DE802B PUSH1 0x20 PUSH1 0x4 CALLDATALOAD SWAP3 LOG3 STOP JUMPDEST CALLVALUE PUSH2 0x14C JUMPI PUSH1 0x20 CALLDATASIZE PUSH1 0x3 NOT ADD SLT PUSH2 0x14C JUMPI PUSH1 0x4 CALLDATALOAD PUSH1 0x1 PUSH1 0x1 PUSH1 0xA0 SHL SUB DUP2 AND SWAP1 DUP2 SWAP1 SUB PUSH2 0x14C JUMPI PUSH1 0x0 SLOAD PUSH1 0x1 PUSH1 0x1 PUSH1 0xA0 SHL SUB DUP2 AND PUSH2 0x2D3 CALLER DUP3 EQ PUSH2 0x999 JUMP JUMPDEST DUP3 ISZERO PUSH2 0x310 JUMPI DUP3 SWAP1 PUSH32 0xB532073B38C83145E3E5135377A08BF9AAB55BC0FD7C1179CD4FB995D2A5159C PUSH1 0x0 DUP1 LOG3 PUSH1 0x1 PUSH1 0x1 PUSH1 0xA0 SHL SUB NOT AND OR PUSH1 0x0 SSTORE STOP JUMPDEST PUSH1 0x40 MLOAD PUSH3 0x461BCD PUSH1 0xE5 SHL DUP2 MSTORE PUSH1 0x20 PUSH1 0x4 DUP3 ADD MSTORE PUSH1 0xF PUSH1 0x24 DUP3 ADD MSTORE PUSH15 0x496E76616C69642061646472657373 PUSH1 0x88 SHL PUSH1 0x44 DUP3 ADD MSTORE PUSH1 0x64 SWAP1 REVERT JUMPDEST CALLVALUE PUSH2 0x14C JUMPI PUSH1 0x20 CALLDATASIZE PUSH1 0x3 NOT ADD SLT PUSH2 0x14C JUMPI PUSH1 0x0 PUSH1 0x60 PUSH1 0x40 MLOAD PUSH2 0x368 DUP2 PUSH2 0x945 JUMP JUMPDEST DUP3 DUP2 MSTORE DUP3 PUSH1 0x20 DUP3 ADD MSTORE DUP3 PUSH1 0x40 DUP3 ADD MSTORE ADD MSTORE PUSH1 0x4 CALLDATALOAD PUSH1 0x0 MSTORE PUSH1 0x2 PUSH1 0x20 MSTORE PUSH1 0x80 PUSH1 0x40 PUSH1 0x0 KECCAK256 PUSH1 0x40 MLOAD SWAP1 PUSH2 0x398 DUP3 PUSH2 0x945 JUMP JUMPDEST DUP1 SLOAD SWAP2 DUP3 DUP2 MSTORE PUSH1 0x2 PUSH1 0x1 DUP4 ADD SLOAD SWAP3 PUSH1 0x20 DUP4 ADD SWAP4 DUP5 MSTORE ADD SLOAD SWAP2 PUSH1 0xFF PUSH1 0x60 PUSH1 0x40 DUP5 ADD SWAP4 DUP3 DUP7 AND ISZERO ISZERO DUP6 MSTORE ADD SWAP4 PUSH1 0x8 SHR AND ISZERO ISZERO DUP4 MSTORE PUSH1 0x40 MLOAD SWAP4 DUP5 MSTORE MLOAD PUSH1 0x20 DUP5 ADD MSTORE MLOAD ISZERO ISZERO PUSH1 0x40 DUP4 ADD MSTORE MLOAD ISZERO ISZERO PUSH1 0x60 DUP3 ADD MSTORE RETURN JUMPDEST CALLVALUE PUSH2 0x14C JUMPI PUSH1 0x0 CALLDATASIZE PUSH1 0x3 NOT ADD SLT PUSH2 0x14C JUMPI PUSH1 0x0 SLOAD PUSH1 0x40 MLOAD PUSH1 0x1 PUSH1 0x1 PUSH1 0xA0 SHL SUB SWAP1 SWAP2 AND DUP2 MSTORE PUSH1 0x20 SWAP1 RETURN JUMPDEST CALLVALUE PUSH2 0x14C JUMPI PUSH1 0x20 CALLDATASIZE PUSH1 0x3 NOT ADD SLT PUSH2 0x14C JUMPI PUSH1 0x4 CALLDATALOAD PUSH1 0x0 MSTORE PUSH1 0x2 PUSH1 0x20 MSTORE PUSH1 0x80 PUSH1 0x40 PUSH1 0x0 KECCAK256 PUSH1 0xFF DUP2 SLOAD SWAP2 PUSH1 0x2 PUSH1 0x1 DUP3 ADD SLOAD SWAP2 ADD SLOAD SWAP1 PUSH1 0x40 MLOAD SWAP4 DUP5 MSTORE PUSH1 0x20 DUP5 ADD MSTORE DUP2 DUP2 AND ISZERO ISZERO PUSH1 0x40 DUP5 ADD MSTORE PUSH1 0x8 SHR AND ISZERO ISZERO PUSH1 0x60 DUP3 ADD MSTORE RETURN JUMPDEST CALLVALUE PUSH2 0x14C JUMPI PUSH1 0x40 CALLDATASIZE PUSH1 0x3 NOT ADD SLT PUSH2 0x14C JUMPI PUSH2 0x47F PUSH2 0x92F JUMP JUMPDEST PUSH1 0x4 CALLDATALOAD PUSH1 0x0 MSTORE PUSH1 0x3 PUSH1 0x20 MSTORE PUSH1 0x40 PUSH1 0x0 KECCAK256 SWAP1 PUSH1 0x1 DUP1 PUSH1 0xA0 SHL SUB AND PUSH1 0x0 MSTORE PUSH1 0x20 MSTORE PUSH1 0x20 PUSH1 0xFF PUSH1 0x40 PUSH1 0x0 KECCAK256 SLOAD AND PUSH1 0x40 MLOAD SWAP1 ISZERO ISZERO DUP2 MSTORE RETURN JUMPDEST CALLVALUE PUSH2 0x14C JUMPI PUSH1 0x80 CALLDATASIZE PUSH1 0x3 NOT ADD SLT PUSH2 0x14C JUMPI PUSH1 0x4 CALLDATALOAD PUSH2 0x4CF PUSH2 0x92F JUMP JUMPDEST PUSH1 0x44 CALLDATALOAD PUSH1 0x1 PUSH1 0x1 PUSH1 0xA0 SHL SUB DUP2 AND SWAP2 SWAP1 DUP3 DUP2 SUB PUSH2 0x14C JUMPI PUSH1 0x64 CALLDATALOAD PUSH1 0x1 PUSH1 0x1 PUSH1 0xA0 SHL SUB DUP2 AND SWAP1 DUP2 DUP2 SUB PUSH2 0x14C JUMPI PUSH2 0x50F PUSH1 0x1 DUP1 PUSH1 0xA0 SHL SUB PUSH1 0x0 SLOAD AND CALLER EQ PUSH2 0x999 JUMP JUMPDEST DUP6 PUSH1 0x0 MSTORE PUSH1 0x2 PUSH1 0x20 MSTORE PUSH1 0x40 PUSH1 0x0 KECCAK256 SWAP2 PUSH1 0x2 DUP4 ADD SWAP3 DUP4 SLOAD PUSH1 0xFF DUP2 AND ISZERO PUSH2 0x7CA JUMPI PUSH1 0x8 SHR PUSH1 0xFF AND PUSH2 0x785 JUMPI PUSH1 0x1 ADD SLOAD SWAP3 DUP4 ISZERO PUSH2 0x748 JUMPI PUSH1 0x32 DUP5 MUL DUP5 DUP2 DIV PUSH1 0x32 SUB PUSH2 0x136 JUMPI PUSH1 0x64 SWAP1 DIV SWAP3 PUSH1 0x1E DUP6 MUL DUP6 DUP2 DIV PUSH1 0x1E SUB PUSH2 0x136 JUMPI PUSH1 0x64 SWAP1 DIV SWAP5 PUSH1 0x14 DUP2 MUL SWAP1 DUP2 DIV PUSH1 0x14 SUB PUSH2 0x136 JUMPI PUSH1 0x1 PUSH1 0x1 PUSH1 0xA0 SHL SUB DUP9 AND SWAP8 PUSH1 0x64 SWAP1 SWAP2 DIV SWAP7 SWAP1 DUP6 DUP10 ISZERO ISZERO DUP1 PUSH2 0x73F JUMPI JUMPDEST PUSH2 0x6E5 JUMPI JUMPDEST POP POP DUP6 DUP10 ISZERO ISZERO DUP1 PUSH2 0x6DC JUMPI JUMPDEST PUSH2 0x682 JUMPI JUMPDEST POP POP DUP3 ISZERO ISZERO DUP1 PUSH2 0x679 JUMPI JUMPDEST PUSH2 0x613 JUMPI JUMPDEST POP SWAP1 PUSH32 0xB043E9488ECCFB9DDB8E206FA33AA36F44D11A89C84ACF5BAB6B9AB5B5DB658A SWAP7 PUSH1 0xC0 SWAP7 SWAP6 SWAP5 SWAP4 SWAP3 PUSH2 0x100 PUSH2 0xFF00 NOT DUP3 SLOAD AND OR SWAP1 SSTORE PUSH1 0x40 MLOAD SWAP6 DUP7 MSTORE PUSH1 0x20 DUP7 ADD MSTORE PUSH1 0x40 DUP6 ADD MSTORE PUSH1 0x60 DUP5 ADD MSTORE PUSH1 0x80 DUP4 ADD MSTORE PUSH1 0xA0 DUP3 ADD MSTORE LOG2 STOP JUMPDEST DUP6 PUSH2 0x624 SWAP2 SWAP8 SWAP7 SWAP6 SWAP5 SWAP4 SWAP3 SWAP8 PUSH2 0xA23 JUMP JUMPDEST ISZERO PUSH2 0x634 JUMPI SWAP1 SWAP2 SWAP3 SWAP4 SWAP5 DUP9 PUSH2 0x5B9 JUMP JUMPDEST PUSH1 0x40 MLOAD PUSH3 0x461BCD PUSH1 0xE5 SHL DUP2 MSTORE PUSH1 0x20 PUSH1 0x4 DUP3 ADD MSTORE PUSH1 0x1B PUSH1 0x24 DUP3 ADD MSTORE PUSH32 0x5468697264207072697A65207472616E73666572206661696C65640000000000 PUSH1 0x44 DUP3 ADD MSTORE PUSH1 0x64 SWAP1 REVERT JUMPDEST POP DUP6 ISZERO ISZERO PUSH2 0x5B4 JUMP JUMPDEST PUSH2 0x68B SWAP2 PUSH2 0xA23 JUMP JUMPDEST ISZERO PUSH2 0x697 JUMPI DUP10 DUP6 PUSH2 0x5A9 JUMP JUMPDEST PUSH1 0x40 MLOAD PUSH3 0x461BCD PUSH1 0xE5 SHL DUP2 MSTORE PUSH1 0x20 PUSH1 0x4 DUP3 ADD MSTORE PUSH1 0x1C PUSH1 0x24 DUP3 ADD MSTORE PUSH32 0x5365636F6E64207072697A65207472616E73666572206661696C656400000000 PUSH1 0x44 DUP3 ADD MSTORE PUSH1 0x64 SWAP1 REVERT JUMPDEST POP DUP1 ISZERO ISZERO PUSH2 0x5A4 JUMP JUMPDEST PUSH2 0x6EE SWAP2 PUSH2 0xA23 JUMP JUMPDEST ISZERO PUSH2 0x6FA JUMPI DUP11 DUP6 PUSH2 0x598 JUMP JUMPDEST PUSH1 0x40 MLOAD PUSH3 0x461BCD PUSH1 0xE5 SHL DUP2 MSTORE PUSH1 0x20 PUSH1 0x4 DUP3 ADD MSTORE PUSH1 0x1B PUSH1 0x24 DUP3 ADD MSTORE PUSH32 0x4669727374207072697A65207472616E73666572206661696C65640000000000 PUSH1 0x44 DUP3 ADD MSTORE PUSH1 0x64 SWAP1 REVERT JUMPDEST POP DUP1 ISZERO ISZERO PUSH2 0x593 JUMP JUMPDEST PUSH1 0x40 MLOAD PUSH3 0x461BCD PUSH1 0xE5 SHL DUP2 MSTORE PUSH1 0x20 PUSH1 0x4 DUP3 ADD MSTORE PUSH1 0x15 PUSH1 0x24 DUP3 ADD MSTORE PUSH21 0x4E6F20706F6F6C20746F2064697374726962757465 PUSH1 0x58 SHL PUSH1 0x44 DUP3 ADD MSTORE PUSH1 0x64 SWAP1 REVERT JUMPDEST PUSH1 0x40 MLOAD PUSH3 0x461BCD PUSH1 0xE5 SHL DUP2 MSTORE PUSH1 0x20 PUSH1 0x4 DUP3 ADD MSTORE PUSH1 0x1A PUSH1 0x24 DUP3 ADD MSTORE PUSH32 0x5072697A657320616C7265616479206469737472696275746564000000000000 PUSH1 0x44 DUP3 ADD MSTORE PUSH1 0x64 SWAP1 REVERT JUMPDEST PUSH1 0x40 MLOAD PUSH3 0x461BCD PUSH1 0xE5 SHL DUP2 MSTORE PUSH1 0x20 PUSH1 0x4 DUP3 ADD MSTORE PUSH1 0x10 PUSH1 0x24 DUP3 ADD MSTORE PUSH16 0x526F756E64206E6F7420616374697665 PUSH1 0x80 SHL PUSH1 0x44 DUP3 ADD MSTORE PUSH1 0x64 SWAP1 REVERT JUMPDEST CALLVALUE PUSH2 0x14C JUMPI PUSH1 0x20 CALLDATASIZE PUSH1 0x3 NOT ADD SLT PUSH2 0x14C JUMPI PUSH2 0x828 PUSH1 0x1 DUP1 PUSH1 0xA0 SHL SUB PUSH1 0x0 SLOAD AND CALLER EQ PUSH2 0x999 JUMP JUMPDEST PUSH1 0x4 CALLDATALOAD PUSH1 0x0 MSTORE PUSH1 0x2 PUSH1 0x20 MSTORE PUSH1 0x2 PUSH1 0x40 PUSH1 0x0 KECCAK256 ADD PUSH1 0xFF NOT DUP2 SLOAD AND SWAP1 SSTORE PUSH1 0x0 DUP1 RETURN JUMPDEST CALLVALUE PUSH2 0x14C JUMPI PUSH1 0x20 CALLDATASIZE PUSH1 0x3 NOT ADD SLT PUSH2 0x14C JUMPI PUSH1 0x0 SLOAD PUSH2 0x1CE SWAP1 PUSH2 0x1C9 SWAP1 PUSH1 0x1 PUSH1 0x1 PUSH1 0xA0 SHL SUB AND PUSH2 0x878 CALLER DUP3 EQ PUSH2 0x999 JUMP JUMPDEST PUSH1 0x4 CALLDATALOAD SWAP1 PUSH2 0xA23 JUMP JUMPDEST CALLVALUE PUSH2 0x14C JUMPI PUSH1 0x0 CALLDATASIZE PUSH1 0x3 NOT ADD SLT PUSH2 0x14C JUMPI PUSH1 0x1 SLOAD PUSH1 0x40 MLOAD PUSH1 0x1 PUSH1 0x1 PUSH1 0xA0 SHL SUB SWAP1 SWAP2 AND DUP2 MSTORE PUSH1 0x20 SWAP1 RETURN JUMPDEST CALLVALUE PUSH2 0x14C JUMPI PUSH1 0x0 CALLDATASIZE PUSH1 0x3 NOT ADD SLT PUSH2 0x14C JUMPI PUSH1 0x1 SLOAD PUSH4 0x70A08231 PUSH1 0xE0 SHL DUP3 MSTORE ADDRESS PUSH1 0x4 DUP4 ADD MSTORE PUSH1 0x20 SWAP1 DUP3 SWAP1 PUSH1 0x24 SWAP1 DUP3 SWAP1 PUSH1 0x1 PUSH1 0x1 PUSH1 0xA0 SHL SUB AND GAS STATICCALL DUP1 ISZERO PUSH2 0x245 JUMPI PUSH1 0x0 SWAP1 PUSH2 0x8FC JUMPI JUMPDEST PUSH1 0x20 SWAP1 PUSH1 0x40 MLOAD SWAP1 DUP2 MSTORE RETURN JUMPDEST POP PUSH1 0x20 DUP2 RETURNDATASIZE PUSH1 0x20 GT PUSH2 0x927 JUMPI JUMPDEST DUP2 PUSH2 0x916 PUSH1 0x20 SWAP4 DUP4 PUSH2 0x977 JUMP JUMPDEST DUP2 ADD SUB SLT PUSH2 0x14C JUMPI PUSH1 0x20 SWAP1 MLOAD PUSH2 0x8F1 JUMP JUMPDEST RETURNDATASIZE SWAP2 POP PUSH2 0x909 JUMP JUMPDEST PUSH1 0x24 CALLDATALOAD SWAP1 PUSH1 0x1 PUSH1 0x1 PUSH1 0xA0 SHL SUB DUP3 AND DUP3 SUB PUSH2 0x14C JUMPI JUMP JUMPDEST PUSH1 0x80 DUP2 ADD SWAP1 DUP2 LT PUSH8 0xFFFFFFFFFFFFFFFF DUP3 GT OR PUSH2 0x961 JUMPI PUSH1 0x40 MSTORE JUMP JUMPDEST PUSH4 0x4E487B71 PUSH1 0xE0 SHL PUSH1 0x0 MSTORE PUSH1 0x41 PUSH1 0x4 MSTORE PUSH1 0x24 PUSH1 0x0 REVERT JUMPDEST SWAP1 PUSH1 0x1F DUP1 NOT SWAP2 ADD AND DUP2 ADD SWAP1 DUP2 LT PUSH8 0xFFFFFFFFFFFFFFFF DUP3 GT OR PUSH2 0x961 JUMPI PUSH1 0x40 MSTORE JUMP JUMPDEST ISZERO PUSH2 0x9A0 JUMPI JUMP JUMPDEST PUSH1 0x40 MLOAD PUSH3 0x461BCD PUSH1 0xE5 SHL DUP2 MSTORE PUSH1 0x20 PUSH1 0x4 DUP3 ADD MSTORE PUSH1 0x18 PUSH1 0x24 DUP3 ADD MSTORE PUSH32 0x4F6E6C79206F776E65722063616E2063616C6C20746869730000000000000000 PUSH1 0x44 DUP3 ADD MSTORE PUSH1 0x64 SWAP1 REVERT JUMPDEST ISZERO PUSH2 0x9EC JUMPI JUMP JUMPDEST PUSH1 0x40 MLOAD PUSH3 0x461BCD PUSH1 0xE5 SHL DUP2 MSTORE PUSH1 0x20 PUSH1 0x4 DUP3 ADD MSTORE PUSH1 0xF PUSH1 0x24 DUP3 ADD MSTORE PUSH15 0x15DA5D1A191C985DC819985A5B1959 PUSH1 0x8A SHL PUSH1 0x44 DUP3 ADD MSTORE PUSH1 0x64 SWAP1 REVERT JUMPDEST PUSH1 0x1 SLOAD PUSH1 0x40 MLOAD PUSH4 0xA9059CBB PUSH1 0xE0 SHL DUP2 MSTORE PUSH1 0x1 PUSH1 0x1 PUSH1 0xA0 SHL SUB SWAP3 DUP4 AND PUSH1 0x4 DUP3 ADD MSTORE PUSH1 0x24 DUP2 ADD SWAP4 SWAP1 SWAP4 MSTORE PUSH1 0x20 SWAP2 DUP4 SWAP2 PUSH1 0x44 SWAP2 DUP4 SWAP2 PUSH1 0x0 SWAP2 AND GAS CALL SWAP1 DUP2 ISZERO PUSH2 0x245 JUMPI PUSH1 0x0 SWAP2 PUSH2 0xA6D JUMPI POP SWAP1 JUMP JUMPDEST PUSH1 0x20 DUP2 RETURNDATASIZE PUSH1 0x20 GT PUSH2 0xAA1 JUMPI JUMPDEST DUP2 PUSH2 0xA86 PUSH1 0x20 SWAP4 DUP4 PUSH2 0x977 JUMP JUMPDEST DUP2 ADD SUB SLT PUSH2 0xA9D JUMPI MLOAD SWAP1 DUP2 ISZERO ISZERO DUP3 SUB PUSH2 0x23A JUMPI POP SWAP1 JUMP JUMPDEST POP DUP1 REVERT JUMPDEST RETURNDATASIZE SWAP2 POP PUSH2 0xA79 JUMP INVALID LOG2 PUSH5 0x6970667358 0x22 SLT KECCAK256 0xC5 JUMP CALLDATASIZE SDIV 0xD9 0x4D 0x2C EXP SELFBALANCE 0xBC 0xAB PUSH29 0x80A9268F13150760FE3FC2F7C9B3AB9C55C3E52464736F6C634300081C STOP CALLER "
        },
        "methodIdentifiers": {
          "cUSD()": "1fccf672",
          "changeOwner(address)": "a6f9dae1",
          "distributePrizes(uint256,address,address,address)": "66e9e964",
          "emergencyWithdraw(uint256)": "5312ea8e",
          "emergencyWithdrawAll()": "dd191719",
          "endRound(uint256)": "5a1e6ca1",
          "getBalance()": "12065fe0",
          "getRound(uint256)": "8f1327c0",
          "hasClaimed(uint256,address)": "873f6f9e",
          "owner()": "8da5cb5b",
          "receiveEntryFee(uint256)": "b86219e7",
          "rounds(uint256)": "8c65c81f",
          "updateRoundPool(uint256,uint256)": "ff6e9a8d"
        }
      }
    }
  }
}